:020000040001F9
:10B0000030300020D5B00100EFB00100F1B00100F8
:10B010000000000000000000000000000000000030
:10B02000000000000000000000000000F3B001007C
:10B030000000000000000000F5B00100F7B00100C2
:10B04000EDB40100F9B0010079B70100F9B00100D9
:10B050009DB501000000000031B30100F9B001000E
:10B06000F9B00100F9B00100F9B00100F9B0010038
:10B07000F9B00100F9B00100F9B00100F9B0010028
:10B08000F9B0010041B50100F9B00100F9B00100CB
:10B09000B1B50100F9B00100B9B50100F9B0010086
:10B0A000F9B00100F9B0010000000000000000004C
:10B0B0000000000000000000000000000000000090
:10B0C0000348854600F09CF8004800479DD40100E5
:10B0D000303000200321094802680A430260084812
:10B0E00002680A4302600748804707480047FEE7B6
:10B0F000FEE7FEE7FEE7FEE7FEE70000240500406E
:10B1000054050040D9B60100C1B0010030B50B466E
:10B11000014600202022012409E00D46D5409D4231
:10B1200005D31D469540491B2546954040191546B7
:10B13000521E002DF1DC30BD03460B439B0703D0AC
:10B1400009E008C9121F08C0042AFAD203E00B78EC
:10B150000370401C491C521EF9D27047D2B201E064
:10B160000270401C491EFBD270470022F6E710B562
:10B1700013460A4604461946FFF7F0FF204610BD65
:10B1800030B505460020034600E05B1C934205D223
:10B19000EC5CC85C201A01D1002CF6D130BDF0B5B2
:10B1A0001FB40646002082B005464024019100905D
:10B1B0001BE0019922460F46304600F043F8049AFE
:10B1C000059B801A994110D310461946224600F07B
:10B1D00029F8361A8F410197224601200021009F4D
:10B1E00000F020F838184D4100902046641E0028D9
:10B1F000DFDC019B00982946324607B0F0BD000015
:10B20000064C0125064E05E0E36807CC2B430C3CB9
:10B2100098471034B442F7D3FFF756FF68F40100A3
:10B2200088F4010010B5202A04DB0146203A914041
:10B23000002010BD914020239C1A0346E34019438F
:10B24000904010BD10B5202A04DB0846203AD040BB
:10B25000002110BD0B46D340D0402024A21A9140BB
:10B260000843194610BD000010B58AB040220021E5
:10B27000244802F0D5FA234C0820207022A10FC9DF
:10B2800003936B4607C324A30FCB079304AB07C3F9
:10B2900025A103C908900991012000216A46535C49
:10B2A0002354401C491CC9B2C0B21029F7D3002155
:10B2B00004AA535C2354401C491CC9B2C0B21029D3
:10B2C000F7D3002108AA535C2354401C491CC9B27F
:10B2D000C0B20929F7D37D22D2002821094803F002
:10B2E0003BF900280AD0642002F01CFB0821054825
:10B2F00003F04EFFA079092802D000200AB010BD4B
:10B300000120FBE7AC2700206301FF630203630316
:10B310000363050063084D63094D630D10630E035D
:10B320006314686317FF63183F631918633C1000C8
:10B33000F0B50024FF268BB0013601252746069480
:10B34000304602F017FE002807D0544840682842D3
:10B3500003D0304602F006FE2C43361D6D007F1CE4
:10B36000B6B2042FECD3FF257D35284602F002FE4D
:10B37000002809D0284602F0F5FD6807044306AA14
:10B380000121002002F0DAFD454D200714D00127ED
:10B39000002627420CD04348B200111808690969F9
:10B3A000C004C00E8903AA58890F002A00D0904714
:10B3B0007F00761C042EECD3002C6DDA0020089060
:10B3C000401E63E0281940300778B906890E0091C5
:10B3D00000214156491C49D009A9009802F077FA8A
:10B3E000002843D0B8090190009801F053FC800078
:10B3F0002F580198002F02D0032802D00DE0032817
:10B4000034D1009808ABC20841079446985C490FB4
:10B4100001228A401043624698540098052109078A
:10B4200080004018072109024018006806A980031F
:10B43000800F0290009802F04AFA0028029802D089
:10B44000022802D012E0032810D10198032808D165
:10B45000029802281ED00221009802F049FD761CB5
:10B46000F6B2002F02D001990098B847641C042C52
:10B47000A8D3002E10D06A460121002002F05EFD04
:10B4800006990098884207D006900898002634460E
:10B49000099097E70321DFE70BB0F0BD00630040A0
:10B4A00098260020006500408307FF22DB0E9A40AB
:10B4B0008907090E994000280BDA0007000F0838A9
:10B4C000830808489B001818C36993430B43C36162
:10B4D0007047830804489B001B1818689043084372
:10B4E0001860704700ED00E000E400E0F8B5FF20D0
:10B4F000013002F0F4F9002401250E4E0E4F002811
:10B5000007D00E4804600120B0607D70002001F07B
:10B51000C9FBFF20053002F0E2F9002808D00748F7
:10B52000001D04600220B060BD70012001F0BAFB74
:10B53000F8BD000000030040842600200001004008
:10B5400010B506490020086048608860C86003495B
:10B5500040390860486003F0CDF910BD401101404A
:10B5600010B50D4C1420207001216170A070E170A5
:10B570007D22D2000421204602F0EEFF002807D0F1
:10B580000821204603F004FEA079152801D00020F0
:10B5900010BD012010BD0000AC27002010B50249ED
:10B5A000024801F0C3FD10BDFC2600200040004011
:10B5B00010B503F011F910BD10B50448406800281B
:10B5C00001D0804710BD01F071FD10BD902000201A
:10B5D00010B5402200210F4802F022F90D4C122034
:10B5E0002070042060707D22D2000221204602F0EB
:10B5F000B3FF00280AD0642002F094F90821204605
:10B6000003F0C6FDA079132801D0002010BD012051
:10B6100010BD0000AC270020F8B52E4C1220207081
:10B6200014207D276070FF003A460221204602F078
:10B6300093FF00284DD0962002F074F9082120468F
:10B6400003F0A6FDA079132842D1322626700125E9
:10B6500065700020A0703A460321204602F07CFF6E
:10B66000002836D0962002F05DF90821204603F02C
:10B670008FFDA07933282BD126706570A5703A46CE
:10B680000321204602F068FF002822D0962002F015
:10B6900049F90821204603F07BFDA079332817D112
:10B6A000267005206070FF20A070E07020713A467F
:10B6B0000521204602F050FF00280AD0962002F013
:10B6C00031F90821204603F063FDA079332800D02A
:10B6D0000020F8BDAC27002010B501F08BFD00283C
:10B6E00005D01F491D484860C8131E4988611E487F
:10B6F000018CC9B201290BD1828C120708D1028DAD
:10B700001206120F042A03D1828D1206120F0AD0DC
:10B71000012921D1818C09071ED1018D0906090F4C
:10B720000A2904D007E0114A01219160F5E7828DD2
:10B730001206120F05D00D290ED1808D0006000FC4
:10B740000AD10B480168012904D00A490160016847
:10B750000129FCD1C021416110BD0000DFFF07C0FD
:10B7600000050040006C0040C00F00F000060040E3
:10B7700000EC06407593000010B50249024803F042
:10B78000A9FB10BDE0260020002000400FB410B53A
:10B7900003A9044B044A029800F032F810BC08BC1C
:10B7A00004B01847CFCF01008C20002030B474467D
:10B7B000641E2578641CAB4200D21D46635D5B00AD
:10B7C000E31830BC184702E008C8121F08C1002A5D
:10B7D000FAD170477047002001E001C1121F002A12
:10B7E000FBD17047202804DA01218140034801423F
:10B7F00001D001207047002070470000FC06FFBC0C
:10B80000FFB591B00F460546002606E025280AD070
:10B81000149A139990476D1C761C28780028F5D14E
:10B82000304615B0F0BD002400940121F34A029483
:10B8300000E004436D1C2B780846203B98401042E2
:10B84000F7D128782A280ED0022128780246303AEB
:10B85000092A15D8009A0A235A43303A80180C4313
:10B860006D1C0090F1E701CF0090002805DA01205F
:10B8700040030443009840420090022004436D1CA2
:10B8800028782E2815D10420044368786D1C2A28B6
:10B890000AD101CF6D1C02900BE002990A2251439C
:10B8A000303940186D1C029028780146303909293A
:10B8B000F3D928786C2810D006DC4C281AD06828D8
:10B8C0000ED06A2817D104E0742813D07A2812D138
:10B8D00010E00120400504430CE00121090501E0CE
:10B8E000032109050C436978814203D10120000539
:10B8F00024186D1C6D1C287803906E281ED00CDC5B
:10B90000632831D004DC00288AD0582811D1B2E055
:10B9100064287BD069280CD178E073282DD004DC12
:10B920006F2870D0702804D1A7E075286CD07828D3
:10B930006BD0149A13999047761C62E06002400F16
:10B94000022807D003280AD0042838680AD00660E5
:10B950003F1D56E03868F11706604160F8E7386827
:10B960000680F5E70670F3E738786946087400202A
:10B97000487404A80390012003E038680390002075
:10B98000C0433F1D61070FD5002101E00199491C0B
:10B99000029A0191914213DA8142F7DB019A0399ED
:10B9A000895C0029F2D10BE0002101E00199491CDA
:10B9B00001918142FADB019A0399895C0029F5D152
:10B9C00001990098139A401A00902146149B00F0A8
:10B9D0003BF901998019461807E00398039900780C
:10B9E000491C0391149A139990470198401E0190A5
:10B9F000401CF2D12146149B139A009800F014F9D0
:10BA000086196D1C09E741E033E034E00A2000218B
:10BA1000049005916002410F022905D001CFC217A1
:10BA20009446032905D007E0FF1DFF08FF0003CF60
:10BA300006E000B2C2179446042902D140B2C117F1
:10BA40008C4600226146944506DA0A4600214042AF
:10BA500091418C462D2102E0210504D52B216A4617
:10BA60001176012103E0E10701D02021F7E70191E0
:10BA700054E00A200BE0102009E01020049000217F
:10BA80000420044308200591029003E008200021CF
:10BA9000059104906002410F022905D001CF0022D8
:10BAA0009446032906D006E0FF1DFF08FF0003CFE0
:10BAB0008C4603E080B2042900D1C0B2002101917C
:10BAC00021072BD50399702906D0049A1021059BD4
:10BAD0004A401A4305D00EE040216A461176012102
:10BAE00008E06146014306D030216A461176039989
:10BAF000517602210191049A0821059B4A401A437C
:10BB00000CD16146014301D1610707D530216A4656
:10BB10001176012101910299491E02910399582938
:10BB200004D037A103910FA90F910DE039A1F9E7D6
:10BB30006146059B049AFFF732FB039B8C469B5C96
:10BB40000F9A521E0F92137061460143F0D10F9865
:10BB500007A9081A20300390600704D501200004CB
:10BB60008443029801E0012002900399884201DD9C
:10BB7000401A00E00020411802900198091800982E
:10BB8000401A0090E00306D42146149B139A0098B3
:10BB900000F05AF886190020049008E006A9085C15
:10BBA000149A139990470498401C761C04900199AC
:10BBB0008842F3DBE0030CD52146149B139A0098CE
:10BBC00000F042F8861904E0149A30201399904747
:10BBD000761C0299481E02900029F5DC08E00F98B7
:10BBE0000F990078491C0F91149A13999047761C6D
:10BBF0000399481E03900029F1DCFBE609280100A7
:10BC000030313233343536373839616263646566D2
:10BC10000000000030313233343536373839414294
:10BC20004344454600000000F8B5044600251E4682
:10BC30001746880404D405E039462020B0476D1C1F
:10BC4000641EF9D52846F8BDFFB50446002581B02D
:10BC50001E46C80301D5302700E02027880404D5FC
:10BC600005E038460399B0476D1C641EF9D5284697
:10BC700005B0F0BDF7B584B00646002517881580DD
:10BC800020300290407B1446002806D03A462146D8
:10BC9000059800F037FD050009D1B078002823D0C1
:10BCA000059886462088001DB84202D90C2007B0AE
:10BCB000F0BD684679DF0028F9D12188032072465B
:10BCC000505420881921401C80B2208011542088B3
:10BCD0007146401C80B2208041186846008803F0FD
:10BCE0008DF9218840182080F078002817D021880D
:10BCF00003230A46F356C91C0598B942D6D8022137
:10BD0000815421880122491C89B221804254218812
:10BD1000491C89B2218043542088401C20807068CF
:10BD2000002817D021880023C3560A46C91C05984D
:10BD3000B942BBD80221815421880A22491C89B208
:10BD4000218042542188491C89B221804354208893
:10BD5000401C2080308900280AD00094304601978A
:10BD6000062202210830059B03F096F905009ED1BA
:10BD7000308A00280AD00094304601970722032118
:10BD80001030059B03F088F9050090D1308B002816
:10BD90000AD0009430460197152214211830059BD3
:10BDA00003F07AF9050082D1306A002806D03B46BC
:10BDB0002246059900F0DEFF0500D8D1706A002800
:10BDC00006D03B462246059901F032FC0500CED153
:10BDD0000298007B002807D03B4622463046059952
:10BDE00002F0D5FB0500C2D13078002807D03B46D1
:10BDF00022463046059901F01BFD0500B7D12846C3
:10BE000055E70000174A0021535C002B01D00122A6
:10BE100003E0491C0629F7D300221349012806D064
:10BE200002280BD0032810D0042818D112E048783B
:10BE3000002803D0002A01D001207047887800280C
:10BE400003D0002A01D002207047C878002801D012
:10BE5000032070470879002801D004207047002093
:10BE600070470000252000209C24002010B50122EE
:10BE70000221002000F014FE002801D0072812D172
:10BE800007220221012000F00BFE002801D0072824
:10BE900009D100210A22084600F002FE002801D044
:10BEA000072800D1002010BDBFF34F8F044903487D
:10BEB000C860BFF34F8F00BFFDE700000400FA0524
:10BEC00000ED00E00EB50021029000916A4601915C
:10BED0000148FFF7E9FF0EBD0140000010B5826880
:10BEE000C368934203D001F05FF8002010BD052025
:10BEF00010BD002906D0002A02D0531E134203D0E1
:10BF0000092070470E207047016083800021816006
:10BF1000C1600846704710B58268C3689A1A838862
:10BF20009A4203D801F04AF8002010BD042010BD49
:10BF3000094B5B68002B07D0002A07D0002805D0EA
:10BF40000068037C002B03D008207047072070474F
:10BF5000417442610020704760200020FFB5074611
:10BF60009007002581B01E461446002825D1002CDC
:10BF700023D002F013FA3046114EF06030461030F4
:10BF800005704570029981704460756035700124B8
:10BF90000C4875702405046003211420FFF784FA0F
:10BFA00009480460094CA76003211120FFF77CFABF
:10BFB0006068B060002005B0F0BD0720FBE700001E
:10BFC0005020002080E200E000E100E00015014088
:10BFD000FEB51F4B5B68002B30D000282ED0052902
:10BFE00001D20720FEBD4369002B27D0437C012BE3
:10BFF00026D00027029104460025694616460D709A
:10C00000684600F0CDF801A803F030F8002819D0F8
:10C01000012101700F4944604968816002990761FC
:10C020004661C16068460A490079487068460078F0
:10C0300000F0D4F802F012FC2846FEBD0820FEBD38
:10C040000F46D7E768460425007800F0C7F8F3E705
:10C05000602000200015014010B5084949680029FA
:10C060000AD0002808D04169002905D000210174B8
:10C07000022102F01BFC10BD082010BD6020002032
:10C0800070B5094C0146A6780848FFF727FF05461A
:10C09000002E06D00020A070611C0122C81D01F0F6
:10C0A000EBFD284670BD00007020002024270020F2
:10C0B000F0B5274E89B01F460D00044672601CD0B3
:10C0C000A888296882B22348FFF713FF002815D1FA
:10C0D000A889A96882B21F481030FFF70AFF00281C
:10C0E0000CD120221C496846FFF726F860690690AB
:10C0F000207C002804D0012103E0072009B0F0BD16
:10C100000021684601750777607C002800D00E206A
:10C1100069464875E0680290A06803902068019025
:10C12000606800900A480D4A083001F065FD00285B
:10C13000E4D1B0702068401CE0D00548083001F020
:10C14000C9FD03490122491CC81D01F095FDD5E731
:10C15000702000202427002034F401002DEE01007F
:10C1600010B501460C48FFF7D6FE040012D10B486B
:10C1700001F07AFE00280DD1084907480839FFF779
:10C18000ADFE002806D1054901220839034801F017
:10C190000BFE0446204610BD3427002078200020E6
:10C1A00030B5EFF3108172B6094A54680123002CB0
:10C1B00004D00370002900D162B630BD5360054B36
:10C1C0001D68054C254015601C6000220270F1E7D7
:10C1D0008420002080E100E0FC06FFBC08494A689A
:10C1E000002A0CD000280AD1EFF3108072B60A683A
:10C1F000044B1A6000224A60002800D162B67047E2
:10C200008420002000E100E0F8B5074608680C46ED
:10C210000526411C01253602002906D02946814009
:10C2200019488160206801F048FE6068411C02D016
:10C23000002101F039FE3968A06989194862607DE2
:10C24000217D3A6808439119C866386806CC801980
:10C250004261C160207B083C012814D1A068411CC8
:10C2600002D0002101F020FEE068411C05D085408D
:10C2700005488560E06801F020FE3A68E16892199F
:10C28000A06891601061F8BD000500501FB5002145
:10C290006846017032214170480702900C480390B3
:10C2A0000520000701900B4A69460B4801F0A0F8F1
:10C2B0001421094801F094F80748816801F0C8F892
:10C2C0004B20C00001F036FB034801F0D4F81FBD3D
:10C2D00064F401001FE101000C28002010B506489D
:10C2E000816801F0B5F8FF202D3001F023FB0248F2
:10C2F00001F0C1F810BD00000C280020F0B50C467C
:10C3000093B01F216A4611800726002791800028DC
:10C3100009D0C17849070DD502A9FFF7ABFC002869
:10C3200009D102AD01E000251780002C0ED0E07885
:10C33000002802D0304613B0F0BD01AA0AA9204659
:10C34000FFF798FC0028F6D10AAA02E0684600220E
:10C35000878068468088C3B268460088C1B2284694
:10C3600072DFE8E7FFB581B01E460A9F134604005E
:10C3700047D0002B45D0504D012028700420E87094
:10C38000202219464D48FEF7D7FE00206F61C043BA
:10C390002E612881284607211830FEF7E6FE47481F
:10C3A0003C212030FEF7E1FE444821782030017026
:10C3B000A1788170E178C170617841703F4A656908
:10C3C00023695563114613632031E368A268CB608B
:10C3D0008A603A49E369A269CB638A63616A00298A
:10C3E0001AD001463C310246483241628A60636A93
:10C3F0001B880B80616A436A898899800021436A9F
:10C4000007E00E2005B0F0BD656AAD686D5C55545F
:10C41000491C9D888D42F7D8A16A00291CD0274A63
:10C42000943211460C398A608162A36A9B888B80A2
:10C43000A16A836A098819800021836A04E0A56AD9
:10C44000AD686D5C5554491C9D888D42F7D82C21F0
:10C450000A5D1A4940310A73216A002909D0164938
:10C460000A310162226A52884A80216A026A098876
:10C4700011806168002900D04160104A0E490020F7
:10C48000B3322031C3001B1A85009B180C68401C76
:10C4900063510828F6DB094A0020EB3203018500CE
:10C4A0009B188C68401C63510828F7DB03480299ED
:10C4B0002030FFF723FFA5E70C2000209C2400205C
:10C4C00010B50188134C102915D0112919D01B293A
:10C4D00010D1007A00280DD1E0780521401CFEF72C
:10C4E00015FE084600F018F8002803D061690029FD
:10C4F00000D0884710BD817D0129FBD18088208133
:10C5000010BD00216171808821898842F8D1012005
:10C51000E8E700000C200020F1B53F4C88B02078FF
:10C5200000280AD00898E07006A800F057FD069889
:10C530000125002804D065706AE0082009B0F0BD2C
:10C540003548002707211830FEF70FFE334E70786C
:10C55000002802D0E078012807D0B07800280CD05D
:10C56000E078012801D0022807D12169002903D0F1
:10C5700025710820884700E027710898FFF742FCE2
:10C58000E0702169002909D0032801D0042805D1D1
:10C590003078002802D06079002811D0A7711821C6
:10C5A0006846FEF7E2FD684607700772E1781A48B0
:10C5B0000B001830FFF7FAF8052E080F191D2000A0
:10C5C000A57107208847EAE7A570019068460570C5
:10C5D0004782078213E00221A1700190684605702E
:10C5E000B18941823189018209E0684602F016F87A
:10C5F00002E0684602F03EF8E078002803D0684682
:10C6000073DF00289AD12169002901D0A0788847DA
:10C61000002093E7A770F6E70C2000209C24002060
:10C6200070B5054601461C220E48FEF785FD0E4CEE
:10C63000002626702968002906D00822201DFEF752
:10C640007BFD201D7ADF02E00748001D7BDF00280C
:10C6500007D1401E60806670044A00210448FFF73D
:10C6600067FC70BD682600203C20002009F0010016
:10C6700010F40100F8B5214C0146028800261E483E
:10C68000E589102A13D01E4F112A1FD0122A2BD051
:10C69000502A1AD1881DC988A94216D14189022978
:10C6A00013D10C3000F0FEF800280CD112E08A887B
:10C6B00004464280104808220C301831FEF73CFD39
:10C6C0006670002D01D100F09DFBF8BD0021C9432B
:10C6D000418046703868FFF7BFFC0028F5D0A1699B
:10C6E0000029F2D08847F8BD034808220C300831F1
:10C6F000FEF722FDE7E700003C200020682600202E
:10C7000010F401007CB5054608880C4609309042BB
:10C7100001D90C207CBD684671DF0028FAD1218840
:10C720000820685420881B21401C80B22080295496
:10C73000208800A9401C80B22080401906220131C7
:10C74000FEF7FAFC20886946801D80B220800978B7
:10C75000002900D0012129542088401C208000207D
:10C760007CBD000010B50446FFF784FF2146064853
:10C7700000F040F8204601F043FC2046FFF7A0FE01
:10C78000204600F0F5F810BD1424002030B5184BF9
:10C790000D4604000FCB85B003936B4607C324D02E
:10C7A000002D22D00020C043A0822868A061002074
:10C7B000A0752146684663DF002814D121786846B9
:10C7C000817401210182A21C04A90120A0DF00289C
:10C7D00009D12946204601F016FE002803D129463A
:10C7E000204602F0AEFA05B030BD0E20FBE7000097
:10C7F00014F4010010B500281BD0002919D00A88B4
:10C80000102A17D0112A17D0502A12D104468A1D97
:10C81000C888238A1231984202D15389022B0FD043
:10C82000A388984205D1A369002B02D052892046E3
:10C83000984710BD898801E00021C943818210BD5D
:10C84000084600F02FF8002800D00120A07510BD88
:10C8500007B584B000280DD0828A114B9A420BD0C4
:10C86000827D002A08D06A46128B142A06D9072036
:10C8700007B000BD0E20FBE70820F9E70022009278
:10C8800001920292039282896B461A80039106A953
:10C89000029101219970808A6946A6DFE8E70000CD
:10C8A000FFFF00004178027808021043C007C00F64
:10C8B000704700000149085C70470000E0F3010088
:10C8C00005490B5C05494A6801209840034693439B
:10C8D0008B601040C8607047DCF301000005005019
:10C8E00010B50349085C012101F01CFB10BD0000DC
:10C8F000DCF3010010B50349085C002101F012FBD4
:10C9000010BD0000DCF301000549095C05484068E2
:10C91000C840C007C00F00D0012001214840704727
:10C92000DCF301000005005010B500242046FFF79D
:10C93000D7FF641C042CF9D310BD10B50024204689
:10C94000FFF7D8FF641C042CF9D310BD0246002069
:10C9500010B5C043054B00215C5C944201D10846F0
:10C9600010BD491C0429F7D310BD0000E0F30100FD
:10C9700010B51C4C0188606810290DD011290AD10E
:10C98000401E606007D1FFF771FA002803D02168CC
:10C99000002900D0884710BD00281ED100210122A7
:10C9A000084600F07DF8002801D0072811D10722A1
:10C9B0000221012000F074F8002801D0072808D1D6
:10C9C00004220221002000F06BF8002805D007287F
:10C9D00003D02168002900D088476068401C60604F
:10C9E00010BD00000420002010B5002000F04AF91E
:10C9F000002801D0062807D1012000F043F90028C3
:10CA000001D0062800D1002010BD0000F3B581B090
:10CA10000D460198FFF79AFF0446042813D21D48DB
:10CA20001D4F1E4E002D27D0012D0DD0022D0AD1F5
:10CA300060002018C0194578002D04D0F168002945
:10CA400001D028468847FEBD610061187D5CCF1982
:10CA5000797800290BD071680A2251430F4A806807
:10CA6000921CFFF7B5FA002801D10198B0700B486D
:10CA7000B97810300155DFE78068FFF7EDFA074815
:10CA8000610061181030C919005D8D78A842D3D0BB
:10CA9000FEBD0000E4F3010070240020F01F002020
:10CAA00070B50023042811D2440004190D4D012A49
:10CAB00002D101290DD0002246008019094E8019AB
:10CAC00000290CD0012906D0022906D007231846D8
:10CAD00070BD0E30C2B22A55F9E74270F7E7827096
:10CAE000F5E700007024002010B5054A0146127ACF
:10CAF0000020D20702D0084600F004F810BD000064
:10CB0000F01F0020F8B55D4C05466078002600282F
:10CB100003D000206070FFF707FF0120584F2B0063
:10CB2000FEF744FE18970D0D2E3D4A5F64686F684E
:10CB30006FA97777777777979A9DA0A9A995002015
:10CB4000FFF7E2FE00280AD00020FFF7C9FE022D01
:10CB500002D1E120C0000BE07D20400108E0002070
:10CB6000FFF7C8FE022D01D1C82001E0FF2091305F
:10CB700025706421FEF7CAFA6168414300222BE068
:10CB80000020FFF7C1FE002805D00020FFF7A8FE17
:10CB900019204001ECE70020FFF7ACFEE4E700209D
:10CBA000FFF7B2FE002803D00020FFF799FED3E77D
:10CBB0000020FFF79FFED9E70020FFF7A5FE002821
:10CBC00003D00020FFF78CFE02E00020FFF792FE6A
:10CBD00025706068410000223868FFF7F9F90646C1
:10CBE00035E00020FFF76CFE257007E000203FE0F5
:10CBF00025702CE060700120FFF762FE0022616862
:10CC0000EAE760700120FFF75BFE60688100411871
:10CC1000E1E77868FFF720FA06461120401B01D0B3
:10CC2000002E03D00220FFF75BFE10E001280BD995
:10CC3000C82148436421FEF769FA61680022414334
:10CC40007868FFF7C5F906460220FFF753FE304625
:10CC5000F8BDFFF769FECBE7FFF766FEC6E7FFF713
:10CC600063FE04E0FFF760FE0020FFF743FE0120B3
:10CC7000FFF740FEBCE7FFF760FEB9E7F01F0020BA
:10CC8000E4F3010010B5FFF715FE032101F01FF9D1
:10CC9000002010BD024909182020085670470000E6
:10CCA0009826002070B5084C050009D01034216882
:10CCB000002907D008682060496828468847F6E7B9
:10CCC0000834F4E770BD000084260020F8B523483E
:10CCD000416800293ED00E6821494C6887688078F9
:10CCE000E11B0D022D0AED1C002814D101201D4A64
:10CCF000000450601B4A403A50601B4940000860E5
:10CD00001A4908601A49012008602F2000F044FEEB
:10CD1000124901208870B54200D23546E819000258
:10CD20000F4B000A403318600D4A5168001B091B65
:10CD30000902090A0002000AC91C814209D9506887
:10CD400018602F2000F028FE012007494004803998
:10CD50000860F8BD01F022FBF8BD00005020002063
:10CD6000001501404013014080E200E000E100E0D6
:10CD700000100140F8B50646108814468446801D10
:10CD80000D46984201D90C20F8BD32880720062AAA
:10CD9000FAD31927FF01184BBA4201D99A42F3D1AD
:10CDA00071880629F0D3B94201D99942ECD19A424F
:10CDB00003D0994201D08A42E6D805216046295421
:10CDC00020881221401C80B2208029542088401CD9
:10CDD00080B220804119308802F010F92188401873
:10CDE00080B220804119708802F008F9218840182B
:10CDF00020800020F8BD0000FFFF000010B5FFF705
:10CE000061F810BDF8B5164800F0E6F9144D00269B
:10CE10000C3D144C002807D0616900291CD001206A
:10CE20006A461070684616E02878002805D06169C7
:10CE3000002911D0684606700DE0687800280DD0F2
:10CE4000A168094800220068FFF7C2F8002803D053
:10CE5000A169002900D088472E70F8BD6168F0E70D
:10CE6000482000206826002010F4010010B500F0D2
:10CE700003F901F04DF9642000F03AFD00F0BAF832
:10CE8000040017D00DA0FEF781FC210E10A0FEF7C4
:10CE90007DFC2002010E15A0FEF778FC2004010E97
:10CEA00018A0FEF773FC19A0FEF770FC1DA0FEF79A
:10CEB0006DFC10BD26A0FEF769FCFEE72D2D2D2D83
:10CEC0003E69326320706E353332206F6B0D0A007D
:10CED0002D2D2D2D3E466F756E6420636869702080
:10CEE000504E35253032780D0A0000002D2D2D2DA5
:10CEF0003E4669726D77617265207665722E256493
:10CF0000000000002E25640D0A0000002D2D2D2D9F
:10CF10003E706E35333220636F6E666967206F6BCB
:10CF20000D0A00002D2D2D2D3E57616974696E6725
:10CF300020666F7220616E2049534F313434343390
:10CF4000412043617264202E2E2E0D0A0000000045
:10CF50004469646E27742066696E6420504E3533D0
:10CF60007820626F6172640010B50E4900230A7860
:10CF70004C78A24212D0521CD2B20A70022A00D1BE
:10CF80000B700A78074B920018339A580260886831
:10CF900010180002000A8860012010BD0360002004
:10CFA00010BD000050200020826883881A4003686A
:10CFB0009A5C0A708168491C81607047C2688388E6
:10CFC0001A4003689954C168491CC160704710B584
:10CFD0000446C0B2FFF7C4F8204610BD002804D0B4
:10CFE0000349496E0160002070470320704700002C
:10CFF0004427002010B5134C022020707D22D2005F
:10D000000121204601F0A8FA00280ED0022000F0ED
:10D0100089FC0C21204602F0BBF806220A49204672
:10D02000FEF7AEF8002801D0002010BDE079010223
:10D03000207A08430102607A08430102A07A08437B
:10D0400010BD0000AC270020B8200020134610B50A
:10D050000A462421014800F097FD10BDCC20002095
:10D0600008B5002013460A4600902421014800F02C
:10D070009DFD08BDCC2000201FB50A480023C068D4
:10D0800003900B2000900A200190CD20C004029054
:10D090001A466946044800F033FD034800F020FDBD
:10D0A0001FBD000054F40100CC200020F8B51E4C38
:10D0B0002078002836D0E068002600280CD0002513
:10D0C000607800282ED1684652DF052806D0002857
:10D0D00006D0FEF7F7FE0BE00125F1E7012607E099
:10D0E000009800F0C7FC2169002901D0009888470A
:10D0F000002D13D16078002814D16088694608801B
:10D10000A06861DF052804D0002804D0FEF7DAFE0D
:10D1100004E0012502E0E168A0688847002ECFD036
:10D12000002DE5D0F8BD0000902000207FB50C4612
:10D130000D462035064669782878019100902246F0
:10D140002632D11E3046E36901F0D3FC002819D104
:10D15000E87800281DD1207B022801D0032818D1AF
:10D160002269E169914214D16269E261E37B2B702B
:10D17000217E8906C90F6970032804D031462046F4
:10D1800001F050FC7FBD00913146204601F036FD94
:10D190007FBD20460C3007C801AB07C3E8780021EB
:10D1A00000280ED00920C0013218506C506482074C
:10D1B00001D5012002E0400705D502206A46107023
:10D1C00001E0684601702971207E4007E0D42268A2
:10D1D0006846616890477FBD418805480288914252
:10D1E00004D34088814201D8012070470020704755
:10D1F000402000201048018CC9B2012917D1818C30
:10D20000090714D1018D09060A0F03D1828D120678
:10D21000120F0ED0090F012903D1828D1206120FB1
:10D2200007D0032903D1808D0006000F01D0002014
:10D230007047012070470000C00F00F010B50523B3
:10D24000026A04781B02D218C168002C01D0D16098
:10D2500000E091600021417010BD10B50523026A05
:10D2600004781B02D218C168002C01D0916000E044
:10D27000D1600121417010BDF0B5284C2146103914
:10D2800048688B68227886469C46CF78667836E078
:10D29000182353436168521CC918A378D2B2934231
:10D2A00000D100220B78022B02D0032B27D123E0E0
:10D2B00003464D68194603E0A94204D00B46C969EC
:10D2C00000291CD0F8E7002919D08B4208D1C06989
:10D2D000002805D1124F0125BD600025AC4601276D
:10D2E0000D68C969D961002909D00B685B190B6009
:10D2F00005E00174C06900E000210028F9D19642E0
:10D30000C6D10649624610398A604860CF707045C0
:10D3100001D00120F0BD0020F0BD00006020002001
:10D3200000100140F8B52C4E0446706800250090AE
:10D3300041E0002C02D02046E46920E02648182372
:10D340001030017842684B43491CC9B2D2180170B1
:10D350008378994200D105701178506801292CD149
:10D36000017C002929D191684160D16881601169EF
:10D37000C16051698161F178002900D0456043683E
:10D38000B268164F991A0902090AB94202D2826894
:10D39000891806E0D11A09028268090A8A4202D96C
:10D3A000511A016000E0056045600121856001744B
:10D3B000C56101F05BFA002CBBD107481030017841
:10D3C00040788142BAD171680098814201D0012031
:10D3D000F8BD0020F8BD000050200020FFFF7F00B6
:10D3E00082788A4201D207207047C17000207047BE
:10D3F00070B58261044608788E6820708868A060E5
:10D400008868E060486820624878A070C868002595
:10D410000E4A2946E061FEF78BFD002815D10CE08D
:10D42000F00708D005210907AA0051180722032098
:10D4300012028918086076086D1C002EF0D1204673
:10D44000FFF7FCFE01202071002070BD21E10100EA
:10D4500070B50446022020710D462046E160FFF7BA
:10D46000EDFEA0682843A06000202075204600F053
:10D4700057FE002070BD70B50446C0690068FEF715
:10D48000EBFD05462046FFF7D9FE002D01D02846CA
:10D4900070BD01202071002070BD00000023A8B0E5
:10D4A000554A07211846FEF759FD544A01215448B0
:10D4B000FEF73EFD524C01210022C9032068FEF711
:10D4C00087FD2146182208316846FDF735FEFF2109
:10D4D00001314C48069040180791099108900323A8
:10D4E000494A06A96846FEF7E3FD6068454905908C
:10D4F000002348225C3905A801F01AF96A46012187
:10D50000002001F0FDF8684601F0F0F83F4801F016
:10D51000E3F80120014610316846017208223CA15F
:10D5200002A87CDF00240094102168460194018049
:10D530003C214180FF2184809131C1807ADF3748CE
:10D5400000902D486946A830FFF720F93C2101A83A
:10D55000FDF70BFE02216846017184710621C1713D
:10D560003C2110A8FDF701FE012510A805822C48DA
:10D57000159020211FA8FDF7F8FD18A8C5774020B9
:10D580002390B4202490274B1FAA10A9009401A82F
:10D59000FEF7E8FE1C216846FDF7E7FD0520C00305
:10D5A00001900F200004029000940321684601734B
:10D5B000C48104741C4805901C4806906846FFF717
:10D5C0002FF800F0E9FDFFF751FC0320FEF7A4FF60
:10D5D0000C4C743C48DF20780028FBD0FEF77EFE20
:10D5E0000848743800F070FD06481822002174388D
:10D5F00000F016F9EEE700006C2300201DE10100A9
:10D60000BCF301006C210020DDED010065C70100C5
:10D61000424C55455F53534800000000ADDF010008
:10D62000EC1F0020E9DF0100B5E00100FDCD0100A5
:10D6300070B5144682880E4605462088111D411893
:10D64000921C994201D8FE2A01D90C2070BD521CAF
:10D6500032542088FF21401C80B220803154208821
:10D66000401C80B220808119288801F0C7FC2188E5
:10D67000401880B22080AA88002A09D0A968002911
:10D6800008D08019FDF758FD2088A988401820800F
:10D69000002070BD072070BDF8B5254D069E002402
:10D6A000375D2F55641CE4B2062CF9D3204E0024BC
:10D6B000B61D075D3755641CE4B2042CF9D31C4831
:10D6C0001C4C0E3801704020207001206070002B2F
:10D6D00001D0612000E06020A070E27000202A5C90
:10D6E0002318401CC0B21A710628F8D3002004E0A9
:10D6F000325C2318401C9A72C0B20A468842F7D3A3
:10D7000011460A317D22C9B2D2000A4800F024FF36
:10D7100000280AD00A2000F005F90C21054801F084
:10D7200037FDE079002801D00020F8BD0120F8BDC8
:10D73000BE200020AC27002070B50D46114C4021C2
:10D740002170012161703021A170E0707D22D20032
:10D750000421204600F000FF00280AD00A2000F033
:10D76000E1F81A21204601F013FDE079002801D0EC
:10D77000002070BD0349102208312846FDF7DCFC6B
:10D78000012070BDAC27002010B50E4B40221A704E
:10D7900001225A70A0229A70D8701022181DFDF72D
:10D7A000CBFC7D22D2001421064800F0D5FE0028D3
:10D7B00007D0642000F0B6F81A21024801F0E8FC16
:10D7C000012010BDAC27002070B50D4640281AD2AC
:10D7D000124C40212170012161703021A1707D2601
:10D7E000E070F60032460421204600F0B5FE002825
:10D7F0000AD0304600F0E8F81A21204601F0C8FCB3
:10D80000E079002801D0002070BD044904220831CD
:10D810002846FDF791FC012070BD0000AC270020D8
:10D8200010B5002301E0C1545B1C9342FBD310BD33
:10D83000F8B50F46017814460546012902D16878EB
:10D84000002806D02088821C9A422DD8012902D0B7
:10D8500006E00720F8BD69784118891C994223D851
:10D86000181A801E86B2684606802188B81C0818DF
:10D8700069467DDF0028EDD12878022805D1694668
:10D880000988B14201D809210AE00821012805D1FF
:10D890006878B04202D86A46108001E06846068087
:10D8A00068460088FE2801D90C20F8BD2288401C5B
:10D8B000B8542088401C80B22080395420886946A2
:10D8C000401C20800988401820800020F8BDC20834
:10D8D00043075B0F0120895C984008407047012195
:10D8E000890740180068002800D001207047000018
:10D8F0007D21C90048430FD00849094A096800BF83
:10D9000000BF00BF00BF00BF00BF00BF00BF91420B
:10D9100000D000BF401EF2D170470000D42000208C
:10D920000024F4007D2110B5C900484300F04CF8F4
:10D9300010BD00007D21C90048430FD00849094AA5
:10D94000096800BF00BF00BF00BF00BF00BF00BF2D
:10D9500000BF914200D000BF401EF2D170470000CE
:10D96000D42000200024F40000280FD00849094AE0
:10D97000096800BF00BF00BF00BF00BF00BF00BFFD
:10D9800000BF914200D000BF401EF2D1704700009E
:10D99000D42000200024F40000280FD00849094AB0
:10D9A000096800BF00BF00BF00BF00BF00BF00BFCD
:10D9B00000BF914200D000BF401EF2D1704700006E
:10D9C000D42000200024F40000280FD00849094A80
:10D9D000096800BF00BF00BF00BF00BF00BF00BF9D
:10D9E00000BF914200D000BF401EF2D1704700003E
:10D9F000D42000200024F40070B50E4C00252078BF
:10DA0000002801D0852513E00021A160616021611B
:10DA1000E160094800680126304002D1032100F08E
:10DA20002FF800F0B1FE002801D10448866126706D
:10DA3000284670BD8426002000E100E0000500407B
:10DA400038B50020694608706846FEF7A9FB084C07
:10DA50002078002801D1FFF7CFFFE068401CE0608C
:10DA60000120A07068460078FEF7B8FB38BD0000C2
:10DA70008426002010B5002801D1FFF713F910BD4E
:10DA80008207D30EFF229A408907090E10B59940EC
:10DA900000280BDA03071B0F083B9C080C4BA40063
:10DAA000E318DC6994430C43DC6107E08408094B0C
:10DAB000A400E418236893430B432360C106C90EF6
:10DAC00001208840044908600449086010BD000036
:10DAD00000ED00E000E400E080E200E000E100E0B2
:10DAE000017928225143054A00688918052213024A
:10DAF000C01802600220203188707047FC26002088
:10DB0000F8B507460C460079282148431B494518BB
:10DB10002E462036B078002801D00820F8BD0CC56C
:10DB20000020286070713071A07BF071607B083D2F
:10DB3000002802D0204600F019FF216810488A0012
:10DB4000104952181060626892005118086005234D
:10DB500038681B0206CCC0188160C260216841622F
:10DB60002868083C002805D03868217B000B40B2AB
:10DB7000FFF786FF0120B0700020F8BDFC260020D2
:10DB80000C060000000700503EB5074D2C68AD683C
:10DB9000009402956C466170A37001920022694660
:10DBA00000F016F83EBD000028F401003EB5002547
:10DBB000069C009502956D466970AB700192002C31
:10DBC00001D0202200E00022294600F001F83EBDED
:10DBD00070B50D46017928235943064BCC1891079F
:10DBE00001D0062070BD134601682A46204601F088
:10DBF00053F870BDFC260020F8B506460F460079A4
:10DC00001C2148431A4915464418E07E002801D0DB
:10DC10000820F8BD39463046FEF7F6FA65603869E7
:10DC2000206028460025002813D0FF223068397F65
:10DC30001D328550FF2230684532855003233068FD
:10DC40001B020C4AC01842603068000B40B2FFF75C
:10DC500017FF052230680421120280180160E57563
:10DC60002576A5750121E1762846A576F8BD000048
:10DC7000E026002080000200F8B503791C246343ED
:10DC8000134C81251C19032766680023AD003F0251
:10DC9000002E02D00668F619B560E67D002E0ED083
:10DCA000237E002B07D06168002902D00068C019CC
:10DCB00045601120F8BD21610123227604E0E27560
:10DCC0000025E1606576257600F01AF8F8BD0000C1
:10DCD000E026002070B5044600791C21074D48431A
:10DCE0004019807E002808D1204600F0E5FB20790D
:10DCF0001C22012150434019817670BDE02600208E
:10DD0000F8B5044600791C21484326494518A87EE9
:10DD1000184302D1204600F0CFFB6868002808D0E5
:10DD200081210322206889001202801841600020AE
:10DD3000F8BDFF204530216800220A50FF2125311F
:10DD4000206800F026F90646FF210931206800F01E
:10DD500020F90090FF214531206800F01AF90746AC
:10DD6000009838433043E9D03046384307D129463C
:10DD7000206800F035FBE87D697E8842DED800200F
:10DD8000E875002E01D00320F8BD002F01D00F2030
:10DD9000F8BDA97E01200029216801D00860C6E7EE
:10DDA0004860C4E7E026002070B505460C460079BF
:10DDB0001C21484308494318284600F055F800281C
:10DDC00001D0112070BD9A7500209C609882284671
:10DDD00000F004F870BD0000E0260020F8B504460D
:10DDE00000791C2148431F4900264518FF27206859
:10DDF0001D37C6512068012181602946206800F046
:10DE000091FF6968002913D027E0FF270137FF2120
:10DE10001D31206800F0BDF8002802D1A88AB84260
:10DE2000F5D1A88AB84203D02946206800F07AFFCD
:10DE3000A88AA97D8842E8D3A98AC81FF9380ED0DC
:10DE4000FF271D373946206800F0A3F80028F9D0D5
:10DE500020680121C1600020A8753046F8BD0F265A
:10DE6000F9E70000E026002000791C21484303491F
:10DE70004018807D002800D001207047E026002057
:10DE800070B552000A439900049D0A432902059E79
:10DE90000A43310405240A4324078000072100199E
:10DEA00009024018026070BD1CB500220B460092AA
:10DEB00011460192FFF7E4FF1CBD1CB50021009143
:10DEC0000B46012201911146FFF7DAFF1CBD052226
:10DED000120780008218072000021018026803232E
:10DEE0001B049A430260026809040A4302607047F7
:10DEF000052212078000821807200002101802680D
:10DF000003231B049A430260026809040A43026067
:10DF10007047000001218140014881607047000086
:10DF200000050050012282400348002901D0826090
:10DF30007047C260704700000005005038B5084BBC
:10DF400005241B68009324026B46411805E08500F8
:10DF50005D592D192D69401C20C28142F7D838BD6A
:10DF600024F40100024940180021016070470000BC
:10DF700000600040034940180068012800D00020DC
:10DF800070470000006000404058002800D0012089
:10DF900070474058002800D0012070470322120229
:10DFA00080184068084000D001207047F8B5164638
:10DFB0000D4600240B4F07E0285DFEF7D1F800283E
:10DFC000FAD1285D3855641CB442F5D30D20FEF714
:10DFD000C7F80028FAD10A20FEF7C2F80028FAD1C3
:10DFE000F8BD0000F820002010B5002805D0032857
:10DFF00002D10220FEF778FD10BD00F065FB10BDD8
:10E0000030B52B4D04460188688889B03A2929D05B
:10E010000DDC02292AD0102913D0112916D013297A
:10E0200003D100231A4685217FDF09B030BD512975
:10E0300020D0522911D05529F7D1A088132176DF9D
:10E04000F3E70720FEF750FDA08804E00020FEF76C
:10E050004BFD0020C0436880E7E700231A461946BD
:10E06000A9DFE2E7A088132176DFDEE7A0880021A0
:10E0700067DFDAE71022A11D04A8FDF75DF8684606
:10E08000017C0029D1D0007E042803D0062801D0CD
:10E090000528CAD1022908D0012069460870FF204E
:10E0A00083308880A088A8DFBFE70220F5E7000062
:10E0B000E81F00200078002803D102483B21408857
:10E0C00076DF7047E81F002010B50446FDF748FAD8
:10E0D0002078012807D002280BD003280FD009A0F0
:10E0E000FDF754FB10BDA1786078E21C00F016F932
:10E0F00010BDA1786078E21C01F0A8F810BD00F016
:10E1000049FB10BD6E6F5F63617264200D0A0000F1
:10E1100001490020086070470807005070477047A9
:10E1200070B5012604460671007D00280AD02046FD
:10E13000FFF784F800202075A078E178411A414368
:10E1400008121BE0A169002901D020468847E57824
:10E15000A078A84203D12046FFF77FF80DE0002DFC
:10E16000204608D0FFF779F8A0786843000A401DE0
:10E170002061267504E0FFF761F8A078401D20615A
:10E180002079012807D102202071E0692169006807
:10E190002246FDF71DFF70BD10B5FEF777F810BDE4
:10E1A000FFB51E4C81B04A212170012161701746D4
:10E1B000A0707D221E46D2000321204600F0CCF93B
:10E1C000002819D000253220FFF7ACFB08E0002E14
:10E1D00006D06D1CADB26420FFF7F6FBB5420AD83D
:10E1E00000F0F2FF0128F2D114210C4800F0D0FF1A
:10E1F000E079012802D0002005B0F0BD207B387006
:10E20000002005E021184A7B02990A54401CC0B244
:10E21000217B8142F6D80120EEE70000AC270020E8
:10E22000FFB50E4687B0402200213448FFF7F8FAC8
:10E2300033A003C80491039033A107C96B4607C3F9
:10E2400034A103C942252D4C06910590257000206C
:10E2500003A90A5C2318401CC0B25A700528F8D3E1
:10E260007D27FF003A460621244800F075F9002872
:10E2700041D06420FFF756FB1421204800F088FFAE
:10E280002570002069460A5C2318401CC0B25A70F1
:10E290000B28F8D33A460C21184800F05DF9002805
:10E2A00029D06420FFF73EFB1421144800F070FFD2
:10E2B0002570002005A90A5C2318401CC0B25A70C2
:10E2C0000728F8D33A4608210C4800F045F9002801
:10E2D00011D09620FFF726FB1421084800F058FFC4
:10E2E00000202118097A3154401CC0B20928F8D303
:10E2F0000998082101700BB0F0BD0000AC27002088
:10E3000005000071FF0000001D0000000000080172
:10E3100001328D00003600000857440010B5144A41
:10E320007D2388B0DB00511C0020FFF739FF104C23
:10E33000641E2070002813D0FDF7D0FF6278A11C66
:10E340000C48FEF785FA6078072809D16946042051
:10E35000FFF73AFA2070002802D06420FFF7C8FACD
:10E36000034807220021401CFFF75AFA08B010BDED
:10E37000A5200020142400201CB50621684600F0CA
:10E3800007FF062204496846FCF7FAFE002801D080
:10E3900000201CBD01201CBDB220002070B501244E
:10E3A0000B49600408600B494010886009494039F6
:10E3B0008860094D6C602F20FFF7EEFAAC60074DC6
:10E3C00000242F20AC60FFF7E7FAAC7070BD0000AE
:10E3D00080E100E040130140001001405020002087
:10E3E00030B5FF220523CD7D002409321B02C3185E
:10E3F000002D8450986905D04B7ECA68D054487E61
:10E40000401C487630BD70B500240546601C90B0B5
:10E410000007000F08A9103008940870601C00075E
:10E42000000F103048708878F9263040801C8870C2
:10E430001C2101A8FCF799FE6946087910210843C0
:10E4400069460871029408A80494059407940690FC
:10E45000287808A9887103206946888411200094CF
:10E46000087048708878F7213040801C0840EF2100
:10E470000840012630436946887014210AA8FCF739
:10E4800074FE09A80A9068460B9069460E8614200F
:10E490004C8688862B4668880C330AAA01A9A2DF1D
:10E4A00010B070BD1FB501246B461C70197201922B
:10E4B00006C8684690471FBDFF2325330268002128
:10E4C000D150FF2302680933D15000680121016057
:10E4D0007047000010B50446FDF784F900280CD001
:10E4E000A007C00E002C0ADA2107090F0839890895
:10E4F000144A89008918C96906E0134810BDA108AB
:10E50000124A890089180968C1400806800F04284A
:10E5100011D200280FD002280DD00D494B68E20619
:10E52000D20E01209040002B08D0620992008B5837
:10E5300003438B5004E00448401C10BD05490860AB
:10E54000002010BD00ED00E00120000000E400E02C
:10E550008420002000E100E070B51546002400F0A2
:10E560003FFE0AE0002D08D0641CA4B26420FFF72F
:10E570002BFAAC4201D9002070BD00F025FE012825
:10E58000F0D1FFF7F9FE0028F6D0012070BDFFB5ED
:10E590000746806A81B0144600283DD000253846E1
:10E5A0002030009033E00C20B96A68430E18B08820
:10E5B000801CFE2802D90C2005B0F0BD22880299EB
:10E5C000401C885420881622401C80B2208002996A
:10E5D0000A542088401C80B220800299411830885B
:10E5E00000F00CFD2188401880B22080B288002AFB
:10E5F0000AD0B16800290FD0029BC018FCF79CFD1F
:10E600002088B188401820806D1C0098EDB2007BF6
:10E61000A842C8D80020CFE70720CDE770B5044650
:10E620001248134D018A2182818A61820078002874
:10E6300018D06879002815D100F09EFD002811D06F
:10E6400028462030E0600220084920720420203152
:10E65000C870064800212030FDF750FE002804D184
:10E66000052000E00320A870002070BD9C2400203D
:10E670000C20002070B5044611480426018B21822D
:10E68000818B618200780F4D002816D068790028B0
:10E6900013D100F071FD00280FD028462030E06033
:10E6A00002202072064800212030C670FDF726FEA9
:10E6B000002804D10620A87000E0AE70002070BDD4
:10E6C0009C2400200C20002010B50020FEF70CFA3E
:10E6D000FEF78AF93CDF10BD002803D00249C8606C
:10E6E000002070470E207047902000201CB5034981
:10E6F00001910091694660DF1CBD0000E81F002009
:10E7000070B50E460546144614211046FCF72DFD43
:10E710000120002120802161217326726572002D65
:10E7200000D0A072002070BD10B5FDF7BDFB10BD7C
:10E73000F8B5002903D08C070025002C01D0072054
:10E74000F8BD0E4E0E4FB1607280736039680124BF
:10E75000214003D00A49254680310C60094910DF69
:10E76000002803D0002DEBD03C60F8BD3470FFF7DB
:10E7700067F91620FFF7AEFEF8BD000090200020DC
:10E7800000E100E029E7010001480078704700003F
:10E790009020002020B586B00020009001900290CB
:10E7A0000390FF2168467D250174ED00FCF734FFDE
:10E7B000FCF75AFDFCF70CFF2B4604AA69462046DD
:10E7C000FFF72EFD6846027C69460248FEF740F8D6
:10E7D00006B020BD14240020FEB51F4C0025A768FC
:10E7E000606802906846FEF7BFFB0190FEF744FDAB
:10E7F00006460198002822D000230098616817E09F
:10E800000E680A46864202D9301A086012E0801B60
:10E81000F31800261660D668D169B446002E07D0DA
:10E82000FE183602360A566066469660D561154671
:10E830000029E5D128466160FEF774FD06E0284610
:10E84000FEF770FD002801D1002E02D00298FEF7DD
:10E850003DFA0020E070FEBD50200020012002495A
:10E86000000508607047000000E200E010B50E4BA4
:10E870005968002906D002680C68A24204D8A21A7E
:10E880000A60C161586010BD0B4604E00B46C969BF
:10E89000121B002904D00C689442F7D3A41A0C6010
:10E8A0000260C161D86110BD502000207CB50D46CA
:10E8B0000646002469460C706846FDF771FC01A805
:10E8C00000F0D4FB00280DD005704660684608496A
:10E8D0000079487068460078FDF780FCFFF7BEFFBE
:10E8E00020467CBD684604240078FDF777FCF7E7F6
:10E8F00060200020F8B51B4D6C68002C30D01A4801
:10E9000000274068A968401A0602360A2068B0420B
:10E9100014D8361AC7192246107CE46900280BD097
:10E9200000201074EB68002B03D091695069984760
:10E9300002E0516990698847002CE7D1297868780E
:10E94000814206D1401CC0B26870022801D100206B
:10E95000687004490006800D18310F50FFF77EFFE4
:10E96000F8BD00005020002000150140F8B5044615
:10E970002168224D89002048491908606168890092
:10E98000491908602068FFF7C5FA6068FFF7C2FA06
:10E9900019482168401C890049190860616889008C
:10E9A000491908600420FEF7DFFF0026144F0125F7
:10E9B00021793869C840C007C00F02D0002E19D095
:10E9C0000FE0217828468840F8600420FEF7CCFF4D
:10E9D0002068FFF79FFA0420FEF7C6FF761C092E79
:10E9E000E6DB20798540FD600420FEF7BDFF60680E
:10E9F000FFF790FAF8BD00000C0600000007005079
:10EA00000005005001460320CA0701D04120400202
:10EA10008A0700D50248490701D50148401C7047C4
:10EA200001820000FFB50C4685B000210491FF2152
:10EA3000053100261F466650FF2125316650FF2113
:10EA40001D316650FF210931665005462035E11D14
:10EA5000FF31AE71FA31EE70012F0FD001220A6042
:10EA60000121216221600168002909D014498160D7
:10EA7000806803210902611848601DE00222EEE768
:10EA800001462631233003910290009701962046DB
:10EA9000079B039A029900F02CF80028F5D1E8783A
:10EAA000002809D00920C0012118486C48640028BA
:10EAB00002D0FFF7A7FF0490049809B0F0BD000052
:10EAC0008602000030B51C78039D944208D20522CE
:10EAD0001202095D8018C1611878401C187006E0A8
:10EAE0000121002D02D0C161002030BD4161012013
:10EAF00030BDFFB50F46097883B00446002904D124
:10EB0000059802780C98824201D1012000E0002093
:10EB10000190FF2025300025002907D02550FF2037
:10EB20001D302550FF200930255055E0FF212531AB
:10EB30002046FFF729FA012600282CD1FF211D319C
:10EB40002046FFF721FA002814D0FF201D30255061
:10EB5000FF2125312046FFF717FA00281BD10D9819
:10EB600000902046059B0C9A0699FFF7ABFF002802
:10EB70003FD031E0FF2109312046FFF705FA002898
:10EB80002AD0FF2009302550FF2125312046FFF7EC
:10EB9000FBF9002805D0FF202530255066613E7026
:10EBA0001AE005990C980F78069ABC46874213D252
:10EBB00005231B02E3189B696746D3550A78521C4C
:10EBC000D2B20A70411E8A4203D1022001020851CA
:10EBD00001E0824200D02662019800280BD0FF2677
:10EBE000053631462046FFF7CFF9002803D0A5515E
:10EBF000002007B0F0BD0120FBE70000FFB505468F
:10EC000087B00C460020FF21109F05310590605011
:10EC1000FF2125316050FF211D316050FF21093156
:10EC20006050012149022E4608512036B071F07023
:10EC300001202062A060B31D0097029320460A9A2B
:10EC40000999FFF73FFF2868002807D01148A860FE
:10EC5000A868032109026118486018E023350A9862
:10EC60000090019729462046099B029AFFF741FF31
:10EC70000028F4D1F078002809D00920C00121181B
:10EC8000486C4864002802D0FFF7BCFE0590059848
:10EC90000BB0F0BD86020000F8B504460025032045
:10ECA000ED43000208188560254620352E79002E98
:10ECB00003D0A16841601120F8BD5807C017401C5F
:10ECC0002871180701D50620F8BDA361C1CA0C340C
:10ECD000C1C40C3A9078287050680B266060F60129
:10ECE00050788E19B06010780026183C01280ED09C
:10ECF000002801D1980601D5012000E000206870AD
:10ED00000090937852682046FFF778FF05E06E7018
:10ED1000937852682046FFF785FE21680029D3D1F9
:10ED20002E71F8BDFF221D32002383508B8A8A6822
:10ED3000D25C8B8A5B1C8B82052109024018C26160
:10ED4000704770B58EB005461C216846FCF70DFA79
:10ED5000694608780C21084369460870002401942C
:10ED60000394049405940694287808A988700220D6
:10ED700069460884601C0007000F1030079408776C
:10ED800011204877887FF9210840F721801C08402E
:10ED9000EF2108400126304369468877142109A8ED
:10EDA000FCF7E3F908A8099007A80A9069468E8540
:10EDB0001420CC85088668882B1D09AAA2DF0EB016
:10EDC00070BD1FB500226B461A70197281680191DF
:10EDD000827506C8684690471FBD000070B501786F
:10EDE000002907D0012901D0022902D14068FDF78E
:10EDF00069F870BD0C4C0B4E20783018FDF740F9C7
:10EE00002078401CC0B2311820702039C97F0A29EF
:10EE100001D01428EDD30348FFF756F900202070E5
:10EE200070BD000058210020E81F00207CB501784B
:10EE3000264D002934D001290CD002292DD16A4653
:10EE40001170C068691C01900122C81DFEF714FFF3
:10EE5000684630E0406801781D48FDF75CF80126FF
:10EE60001B4C002803D069460E70019006E0A06894
:10EE7000E168814205D0002069460870084669684B
:10EE80008847A068E168081AA188884206D80F4917
:10EE90000122491CC81DFEF7EFFE7CBDAE707CBD93
:10EEA0000B480A491030FDF719F8002806D0032056
:10EEB000694608706846696888477CBD0349012235
:10EEC00008460830FEF770FF7CBD0000702000206F
:10EED00024270020F0B50C46012185B005464902E3
:10EEE000FFF75CF8032109026F180026002826D0DE
:10EEF000FF2125312846FFF74CF800281FD0FF20BE
:10EF000025302E5081208000B860A07E002801D1DD
:10EF1000012068600221684601700920C00129189B
:10EF2000086808600390E17D68460172E06801901E
:10EF3000E675267606CC6846083C90472DE004210D
:10EF40002846FFF72BF8002827D0FF210931284653
:10EF5000FFF71FF8002820D021462846FFF740FA87
:10EF6000E07D617E884218D1207E002807D0617E36
:10EF7000E268E0752069E060267666760AE0A07EA9
:10EF8000002801D10120686081208000B860E6750A
:10EF9000617EE2682046FFF785FAFF271D37394674
:10EFA0002846FEF7F6FF00280FD0A08AA17D8842F0
:10EFB00004D221462846FFF7B5FE06E0EE51A17DBA
:10EFC000002902D02046FFF7FCFEFF2745373946CF
:10EFD0002846FEF7DEFF00280ED0EE51A07E002866
:10EFE00001D001202860E07D002805D0E675617E13
:10EFF000E2682046FFF756FA05B0F0BD0870000A37
:10F00000487002207047000038B51549154A4888F5
:10F0100090420FD04A78144C521CD2B24A70237BD3
:10F02000934208D3091D75DF002803D0A169002988
:10F0300000D0884738BD00254D70217C002907D0BD
:10F040003B2176DF002803D0A169002900D0884742
:10F0500061690029EED068460570884738BD000018
:10F060003C200020FFFF00006826002010B5094961
:10F070004B788C785A1CD2B2944200D100220C7882
:10F08000944201D1002010BD0270486818214B4302
:10F09000C01810BD60200020FFB583B016460C9D3F
:10F0A0000D9C1F46022200950194039800F00CF875
:10F0B000002807D13B461022314600950194039861
:10F0C00000F002F807B0F0BDFFB583B0074600209E
:10F0D0000C9C8646268805463AE07868A9004218C6
:10F0E0001188684681805188C1800022694601A844
:10F0F00065DF002839D1684601780598814226D11C
:10F100007046002801D0002200E0022220888918E1
:10F1100042180D998A4227D8714600290AD1401C0D
:10F1200080B22080069A049911542088401C2080C7
:10F1300001208646218806980A18694601A865DFDD
:10F14000002812D1694620880978401820806D1C5B
:10F150003888A842C1DC704600280AD02088801B6D
:10F16000401E80B2FF2802D90C2007B0F0BD0699DE
:10F1700088550020F9E7000004480179002902D1F0
:10F18000007B002800D00120704700002C200020C8
:10F1900070B590B00C460546242640216846FBF722
:10F1A000E4FFA01CC2B269463046FDF74FFF0022C3
:10F1B000684604E081184978A954521CD2B2A24290
:10F1C000F8D310B070BD0000044800698008C00783
:10F1D000C00F01D00020704701207047000500508B
:10F1E000F0B591B00E46044640216846FBF7BDFFDE
:10F1F00024256846057000224270761C8270F3B2A6
:10F20000FF22C270DA430371521C4271D422827110
:10F210000721D32600225B1E08E0A75C4754A75CA9
:10F22000491CBE19521CC9B2F6B2D2B29A42F4DBE2
:10F23000F2434254491CC9B200224254491CCAB28A
:10F2400001462846FDF70CFF11B0F0BDF7B5374A6F
:10F250000E4605467D2388B0DB00511C0020FEF7DA
:10F260009FFF324C641E2070002857D0FDF736F8FF
:10F270006278A11C2E48FDF7EBFA6078042829D1AA
:10F280002CA103C901AF03C7AE19083F1CE02748F2
:10F29000009700232A466178401CFEF7FDF9207094
:10F2A00000280FD003A92846FEF746FA2070002850
:10F2B00008D0102203A91E48FDF7CAFA28460A9969
:10F2C000FEF762FA6D1CEDB2AE42E0D2FF20F530DF
:10F2D000FEF70EFB6078072820D118A0FCF756FA3D
:10F2E00023A0FCF753FA69460420FEF76DFA20705C
:10F2F000002810D000246D46295D22A0FCF746FAB4
:10F30000641CE4B2042CF7D318A0FCF73FFA642085
:10F31000FEF7EEFA02E01DA0FCF738FA03480722D8
:10F320000021401CFEF77CFA0BB0F0BDA5200020A8
:10F3300014240020FFFFFFFFFFFF00005365656DF1
:10F340007320746F2062652061204D69666172656B
:10F3500020556C7472616C696768742074616720F1
:10F360002837206279746520554944290D0A000028
:10F3700052656164696E67207061676520340D0AAB
:10F380000000000025303278200000004F6F6F70C1
:10F3900073202E2E2E20756E61626C6520746F2096
:10F3A0007265616420746865207265717565737437
:10F3B00065642070616765213F0D0A00D820002038
:10F3C000010000071400000013000000FF0000000F
:10F3D000FF0000000000000000E0D701151617181C
:10F3E0001112131430240020502400207C2400200B
:10F3F000110003000DCA0100120003000DCA010034
:10F40000130003000DCA0100140003000DCA01001F
:10F41000482600209ECADC240EE5A9E093F3A3B59C
:10F420000000406E000000500100000000000000DD
:10F4300000000000FFFFFFFFFFFFFFFFFFFFFFFFD8
:10F44000FFFFFFFF000000000000000000E0D70108
:10F45000030000001F0000001F00000000009801D2
:10F4600003000000EC27002088F40100E81F0020C2
:10F47000F0000000C6B7010078F50100D820002098
:10F48000580F0000D6B701000000FFFF0100020086
:10F49000000000000000000000000000000000006C
:10F4A000000000000000000000000000000000005C
:10F4B000000000000000000000000000000000004C
:10F4C00000000000000000000000000008260020EE
:10F4D00000000000282600200000000000000000BE
:10F4E000000000000000000000000000000000001C
:10F4F000000000000000000000000000000000000C
:10F5000000000000000000000000000000000000FB
:10F51000000000000000000000200040000000008B
:10F5200000000000000000000000000000000000DB
:10F5300000000000000000000000000000000000CB
:10F5400000000000000000000000000000000000BB
:10F5500000000000FF00FF0000FF06FAD5030000D6
:10F56000000000000000000000000000004000401B
:08F57000000000000024F4007B
:040000050001B0C185
:00000001FF
